:020000040800F2
:10000000180900209D010008D5180008B91700083C
:10001000D1180008A9020008311A000800000000E9
:10002000000000000000000000000000D9180008D7
:10003000A703000800000000D7180008DB1800081C
:10004000B7010008B7010008B7010008B7010008B0
:10005000B7010008B7010008B7010008B7010008A0
:10006000B7010008B7010008B7010008B701000890
:10007000B7010008B7010008B7010008B701000880
:10008000B7010008B7010008B7010008B701000870
:10009000AD020008B7010008B7010008B701000869
:1000A000B7010008B7010008B7010008B701000850
:1000B000B7010008B7010008B7010008B701000840
:1000C000B7010008B7010008B7010008B701000830
:1000D000B7010008B7010008B7010008B701000820
:1000E000B7010008B7010008B7010008B701000810
:1000F000B7010008B7010008B7010008B701000800
:10010000B7010008B7010008B7010008B7010008EF
:10011000B7010008B7010008B7010008B7010008DF
:10012000B7010008B7010008B7010008B7010008CF
:10013000B7010008B7010008B7010008B7010008BF
:10014000B7010008B7010008B7010008B7010008AF
:10015000B7010008B7010008B7010008B70100089F
:10016000B7010008B7010008B7010008B70100088F
:10017000B7010008B7010008B7010008000000003F
:10018000B7010008B7010008DFF80CD000F07AF8DA
:10019000004800476D1B00081809002006488047EA
:1001A00006480047FEE7FEE7FEE7FEE7FEE7FEE75C
:1001B000FEE7FEE7FEE7FEE799190008890100085F
:1001C0002DE9F05F0546002092469B46884606468C
:1001D000814640241BE0284641464746224600F01F
:1001E00041F853465A46C01A914110D31146184659
:1001F000224600F028F82D1A67EB01084F462246E8
:100200000120002100F01FF817EB00094E41201ECD
:10021000A4F10104DFDC484631462A464346BDE8E6
:10022000F09FD2B201E000F8012B491EFBD27047CB
:100230000022F6E710B513460A4604461946FFF7B2
:10024000F0FF204610BD202A04DB203A00FA02F11C
:10025000002070479140C2F1200320FA03F31943B4
:1002600090407047202A04DB203A21FA02F0002156
:10027000704721FA02F3D040C2F1200291400843B6
:1002800019467047064C074D06E0E06840F0010350
:1002900094E8070098471034AC42F6D3FFF778FF94
:1002A000281C0008481C000800BFFEE710B5002409
:1002B0000E4BA3F11C0200210D4800F0BEF980B9DD
:1002C0000A481C380069C4B204E0002107480155FF
:1002D000601CC4B2082CF8DB012004491C3981F8E9
:1002E0007400034800F063FA10BD000030000020E5
:1002F0008C00002001680A4BCAB2103AA3FB0232FC
:100300001209084B9B5CC365032A04D96FF30901EA
:10031000091D816502E06FF309018165806D7047F9
:10032000ABAAAAAA201C0008014600208A6A8B6991
:10033000002B0FD0B3F5005F1DD08AB3012A30D057
:10034000022A2ED0032A04D1C96A11F0807F00D07E
:10035000012070471AB1012A07D0022AF9D1C96ACF
:1003600011F0807FF5D001207047C96AB1F1C07FDC
:10037000FAD1012070475AB1012A0BD0022A07D0C6
:10038000032AF7D1C96AB1F1C07FF3D101207047C8
:1003900001207047C96A11F0807FFAD001207047B0
:1003A000FFE70120704770472DE9FF4105460F46E2
:1003B00014461E46DDF8288000200090019002902F
:1003C00003908DF80050F6208DF801008DF8027032
:1003D00020128DF80300E0B28DF804008DF805605E
:1003E0008DF806806B208DF807000821684601F023
:1003F00031FBBDE8FF8100BFFEE790F82020012A15
:1004000007D0022A05D0416A41F4802141620120CF
:10041000704700684269114341610020704770B421
:1004200090F82040D0F800C0DCF808C0012C08D0BB
:10043000022C06D0416A41F48021416270BC012047
:1004400070470CF080640CF000652C4302D11CF066
:10045000805F55D0CCF3016C012404FA0CF41C60CD
:100460008B684FF4C0749BB1CD6804EB0C162B4322
:100470004D6843EAC5030568AB514FF4C273066883
:1004800003EB0C130D69F550097D012909D00DE02E
:100490000D88CB6804EB0C1643EA45530568AB5155
:1004A000EBE70168CD5845F48075CD501179D379CB
:1004B000557941EA036193791B0443EA0523194303
:1004C0004FF4C675036805EB0C1559511178D378B4
:1004D00041EA0361937852781B0443EA02221143F4
:1004E0004FF4C473026803EB0C13D150016804EBA2
:1004F0000C100A5842F001020A5070BC00207047EC
:10050000416A41F40011416270BC01207047000053
:1005100090F82020012A07D0022A05D0416A41F430
:1005200080214162012070474248D0F8002242F009
:100530000102C0F80022D0F8002222F47C52C0F858
:100540000022D0F800224B6A42EA0322C0F80022BF
:100550000A7D012302F01F0203FA02F2D0F81C32D6
:100560009343C0F81C32CB69D3B9D0F80C32934313
:10057000C0F80C32B1F80CC04B686CF31F43D1F8D3
:1005800014C000EBCC0CCCF84032B1F808C00B68BA
:100590006CF31F43D1F814C000EBCC0CCCF8443200
:1005A000CB69012B1AD1D0F80C321343C0F80C32AE
:1005B000B1F800C04B686CF31F43D1F814C000EBD6
:1005C000CC0CCCF84032B1F808C0CB686CF31F43B8
:1005D000D1F814C000EBCC0CCCF844328B697BB161
:1005E000D0F804321343C0F804320B6973B1D0F869
:1005F00014321343C0F81432096A01290CD010E0F8
:10060000D0F804329343C0F80432EEE7D0F8143245
:100610009343C0F81432EFE7D0F81C121143C0F82E
:100620001C12D0F8001221F00101C0F800120020C5
:100630007047000000640040704730B490F820C05C
:10064000BCF1010F09D0BCF1020F06D0416A41F4A0
:100650008021416230BC0120704739B1D0F800C020
:10066000DCF810C01CF0030F33D006E0D0F800C057
:10067000DCF80CC01CF0030F24D04FF4D87C0468C5
:100680000CEB011C54F80C4004F0040494603CB3DF
:10069000046854F80C40E4085460046854F80CC032
:1006A0000CF0020CC2F80CC04FF4DA7C04680CEBBE
:1006B000011C54F80C5005F00F05082D16D3082422
:1006C000146118E0416A41F40011416230BC01201C
:1006D0007047416A41F40011416230BC012070470B
:1006E000046854F80C40640D1460D6E754F80C40CC
:1006F00004F00F041461046854F80C40C4F3072498
:100700009461046854F80CC04FEA1C4CC2F814C041
:100710004FF4DC72D0F800C002EB01125CF802C0AA
:1007200083F800C0D0F800C05CF802C04FEA1C2C6F
:1007300083F801C0D0F800C05CF802C04FEA1C4C3E
:1007400083F802C0D0F800C05CF80220120EDA7004
:100750004FF4DE72D0F800C002EB01125CF802C068
:1007600083F804C0D0F800C05CF802C04FEA1C2C2B
:1007700083F805C0D0F800C05CF802C04FEA1C4CFA
:1007800083F806C0D0F800C05CF80220120EDA71BF
:1007900039B10068016941F02001016130BC0020DD
:1007A00070470068C16841F02001C160F6E72DE99B
:1007B000F05F0546002428684669D0F804908768F1
:1007C000D0F80CA0D0F810B0D0F8188016F0010FB7
:1007D00054D017F0010F17D00121816017F0020FDC
:1007E00003D0284600F036FA0EE017F0040F02D0CE
:1007F0004FF4006408E017F0080F02D04FF4805463
:1008000002E0284600F025FA17F4807F19D0296805
:100810004FF48070886017F4007F03D0284600F002
:100820001BFA0EE017F4806F02D044F4005408E085
:1008300017F4006F02D044F4804402E0284600F030
:100840000AFA17F4803F19D029684FF48030886085
:1008500017F4003F03D0284600F000FA0EE017F42A
:10086000802F02D044F4004408E017F4002F02D097
:1008700044F4803402E0284600F0EFF916F0080F47
:1008800007D01AF0100F04D044F400742968102027
:10089000C86016F0040F4FF0080707D01AF0080FD1
:1008A00004D02868C760284600F09CF916F0020FB3
:1008B00007D02868C06810F0030F02D0284600F067
:1008C00092F916F0400F07D01BF0100F04D044F43B
:1008D000806429681020086116F0200F07D01BF0F3
:1008E000080F04D028680761284600F07DF916F04B
:1008F000100F07D02868006910F0030F02D02846B7
:1009000000F073F916F4003F08D019F0100F05D06D
:10091000296810204860284600F068F916F4803FE6
:1009200007D019F0080F04D028684760284600F067
:1009300096F916F4004F4AD019F0040F44D016F47B
:10094000807F04D018F0010F01D044F0010416F4A8
:10095000007F04D018F0020F01D044F0020416F416
:10096000806F04D018F0040F01D044F0040416F492
:10097000006F29D018F0700F26D008F070004028C2
:1009800015D006DC102809D020280AD0302816D12E
:100990000AE050280ED0602811D10EE044F008047F
:1009A0000DE044F010040AE044F0200407E044F0B5
:1009B000400404E044F0800401E044F480742868BA
:1009C000816921F070018161296804204860002C50
:1009D00005D0686A204368622846FFF72DFEBDE80F
:1009E000F09F70B50446002C03D094F8200010B19D
:1009F00004E0012070BD204600F0A8F820680168DE
:100A000041F00101016000F0CBFA05462068406822
:100A10004FF0050610F0010F11D100F0C1FA401B94
:100A20000A2807D9606A40F40030606284F82060C8
:100A3000012070BD2068406810F0010FEDD02068E3
:100A4000016821F00201016000F0AAFA0546206861
:100A5000406810F0020F11D000F0A2FA401B0A28E3
:100A600007D9606A40F40030606284F82060012099
:100A700070BD2068406810F0020FEDD1207E012883
:100A80003FD02068016821F080010160607E01286C
:100A90003DD02068016821F040010160A07E01285E
:100AA0003BD02068016821F020010160E07E012830
:100AB00039D02068016841F010010160207F0128D1
:100AC00037D02068016821F008010160607F0128AB
:100AD00035D02068016821F004010160E168A06858
:100AE000626908432169114308436168491E08434C
:100AF0002168C86100206062012084F82000002085
:100B000070BD2068016841F080010160BEE7206887
:100B1000016841F040010160C0E72068016841F0D0
:100B200020010160C2E72068016821F01001016026
:100B3000C4E72068016841F008010160C6E7206849
:100B4000016841F004010160C8E7000010B586B0FB
:100B50000446142101A8FFF76BFB1F492068884257
:100B600038D100BF002000901C48006840F00070A1
:100B70001A4908600846006800F00070009000BF45
:100B800000BF00BF0020009014481038006840F0FB
:100B900001001249103908600846006800F00100A1
:100BA000009000BF00BF4FF4C0500190022002909F
:100BB00000200390032004900920059001A9084813
:100BC00000F0D8F800221146142000F065FA142035
:100BD00000F054FA06B010BD0064004040380240F6
:100BE000000002407047704770477047704770B50B
:100BF000044694F82000012805D0606A40F40020E3
:100C00006062012070BD022084F820002068016825
:100C100021F00101016000F0C3F905462068406839
:100C200010F0010F12D000F0BBF9401B0A2808D9C0
:100C3000606A40F400306062052084F820000120E2
:100C400070BD2068406810F0010FECD10020606298
:100C500070BD704770477047704770477047704766
:100C60002DE9F041044600F09BF90546DCB1022075
:100C700084F83500002684F834602068016821F08B
:100C8000010101602068006810F0010F13D000F02E
:100C900087F9401B052809D920206065032084F8C6
:100CA0003500BDE8F0810120BDE8F08120680068D2
:100CB00010F0010FEBD121680868234A1040A368A7
:100CC0006268D4F810C01A43E36843EA0C031A437D
:100CD00063691A43A3691A43E3691A43236A1A43EF
:100CE0001043626A042A03D1236BE26A1A43104359
:100CF00008602068406920F00701606A40EA010549
:100D0000012704280ED1A06A0543E06A50B12046AD
:100D1000FFF70AFB30B14020606584F83570012090
:100D2000BDE8F081206845612046FFF7E3FA94F8BA
:100D30005C103F2202FA01F18160666584F835702B
:100D40000020BDE8F08100003F8010F070B504463F
:100D500000F026F90546B4F1FF3F02D004480078C0
:100D6000044400F01DF9401BA042FAD370BD0000FE
:100D7000080000202DE9F84F0022DFF818A2DFF864
:100D800010924FF0010E03274FF00F08AAF1040B49
:100D90000EFA02FC0B6803EA0C0363457DD10C7963
:100DA00004F00304012C01D0022C14D185685400F6
:100DB00007FA04F6B543CE6806FA04F42C438460BF
:100DC000446824EA0C0C0C79C4F30014944044EAFF
:100DD0000C0CC0F804C0D1F804C037EA0C0C0CD0DD
:100DE000C4684FEA420C07FA0CF5AC438D6805FA6B
:100DF0000CFC4CEA040CC0F80CC091F804C00CF0D8
:100E0000030CBCF1020F12D14FEAD20C00EB8C04A0
:100E1000256A4FEA427C4FEADC6C08FA0CF6B543CF
:100E20000E6906FA0CFC4CEA050CC4F820C00468F4
:100E30004FEA420C07FA0CF5AC430D7905F00305B7
:100E400005FA0CFC4CEA040CC0F800C0D1F804C050
:100E50001CF4403F7DD0D9F800C04CF4804CC9F858
:100E600000C0D9F800C00CF4804CCDF800C022F0CE
:100E7000030C0CF1804505F59835D5F808C89407A2
:100E8000240F08FA04F62CEA0606A0F1804CBCF503
:100E9000003C64D0A0F1804C00E05AE0BCF5013C7D
:100EA00060D0A0F1804CBCF5023C5ED0A0F1804C3B
:100EB000BCF5033C5CD0A0F1804CBCF5043C5AD09E
:100EC000A0F1804CBCF5053C58D0A0F1804CBCF59D
:100ED000063C56D0A0F1804CBCF5073C54D04FF0F6
:100EE000080C0CFA04FC4CEA060CC5F808C8DAF841
:100EF00000C02CEA030C4C6814F4801F01D04CEAAB
:100F0000030CCAF800C0244CD4F800C02CEA030C2F
:100F10004D6815F4001F01D04CEA030CC4F800C062
:100F2000DBF800C02CEA030C4C6814F4003F01D03D
:100F30004CEA030CCBF800C0184CD4F800C02CEAE3
:100F4000030C4D6815F4803F01D04CEA030CC4F843
:100F500000C0521C102AFFF41BAFBDE8F88F4FF001
:100F6000000CBEE74FF0010CBBE74FF0020CB8E7F6
:100F70004FF0030CB5E74FF0040CB2E74FF0050C4F
:100F8000AFE74FF0060CACE74FF0070CA9E7000005
:100F900044380240083C01400C3C0140003C014008
:100FA00001488068704700000800002002488168FE
:100FB00002781144816070470800002010B50B488A
:100FC000016841F400710160016841F480610160D1
:100FD000016841F480710160032000F091F8002065
:100FE00000F006F800F026F8002010BD003C02409A
:100FF00070B504460D4D4FF47A712878B1FBF0F0CE
:101000000B490968B1FBF0F000F0C2FB08B1012008
:1010100070BD102C07D200222146501E00F03CF873
:101020006C60002070BD012070BD00000800002031
:101030000400002008B500BF002000900E480068A2
:1010400040F480400C4908600846006800F4804085
:10105000009000BF00BF00BF00200090081F006884
:1010600040F08050091F08600846006800F080507A
:10107000009000BF00BF08BD4438024000280ADBD2
:1010800000F01F01012202FA01F14009800000F185
:10109000E020C0F80011704710B4184B1B68C3F370
:1010A0000223C3F1070CBCF1040F01D94FF0040C6B
:1010B0001C1D072C01D2002300E0DB1E012404FAD2
:1010C0000CFCACF1010C0CEA0101994004FA03F3A9
:1010D0005B1E1A401143002806DB00F1E0200901E5
:1010E00080F8001410BC704700F00F0000F1E02001
:1010F000090180F8141D10BC704700000CED00E0E1
:1011000000F00700064A11684FF6FF03194041EA54
:10111000002040F0FD7040F08060106070470000DB
:101120000CED00E02DE9F04704460D46002C13D0ED
:10113000DFF85491D9F80000EFB200F00700A842A0
:101140000DD289F80070D9F8000000F00700A8421D
:1011500005D00120BDE8F0870120BDE8F0872068B8
:101160004A4E10F0020F14D010F0040F03D0306874
:1011700040F4E0503060207810F0080F03D0306861
:1011800040F4604030603068A16820F0F00008430F
:101190003060207810F0010F3ED060683C49012893
:1011A00008D002280DD003280BD0096811F0020FD7
:1011B00028D00AE0096811F4003F06D10120BDE8FB
:1011C000F087096811F0007F19D0316821F0030120
:1011D00008433060FFF7E4FE80463068616800F045
:1011E0000C00B0EB810F17D041F2883AFFF7D8FE20
:1011F000A0EB0800504508D90320BDE8F087012086
:10120000BDE8F0870120BDE8F0873068616800F034
:101210000C00B0EB810FE9D1D9F8000000F0070015
:10122000A8420AD989F80070D9F8000000F0070038
:10123000A84202D00120BDE8F087207810F0040F0A
:1012400005D03068E16820F4E05008433060207831
:1012500010F0080F06D03068216920F4604040EAA1
:10126000C100306000F01CF831680A4AC1F3031174
:10127000515CC8400849086008480068FFF7B8FE9C
:101280000020BDE8F0870000003C02400838024022
:1012900000380240081C0008040000200C00002058
:1012A00010B51748006810F00C01164816D043100E
:1012B000042912D0082911D1134C216801F03F02F2
:1012C000216811F4800F0AD02068C0F38810A0FBB9
:1012D00003010023FEF774FF09E0184610BD2168E2
:1012E0000023C1F38811A1FB0001FEF769FF21680B
:1012F000C1F30141491C4900B0FBF1F010BD0000F1
:10130000083802400024F400043802402DE9F84F68
:101310000446002C12D02078FB4E10F0010FA6F1ED
:10132000040563D0301D016801F00C0104290CD0C4
:10133000006800F00C00082803D010E00120BDE890
:10134000F88F306810F4800F09D0286810F4003F3F
:101350004CD06068002849D10120BDE8F88F606852
:10136000B0F5803F14D0B0F5A02F16D0286820F437
:1013700080302860286820F480202860606810B3DE
:10138000FFF70EFE0746286810F4003F0ED02DE050
:10139000286840F480302860F0E7286840F4802016
:1013A0002860286840F480302860E7E7FFF7F8FD00
:1013B000C01B642802D90320BDE8F88F286810F408
:1013C000003FF3D012E0FFF7EBFD0746286810F46A
:1013D000003F0BD0FFF7E4FDC01B642802D90320B7
:1013E000BDE8F88F286810F4003FF3D12078C74F8C
:1013F00010F0020F4FF0000957D0C548016811F0F6
:101400000C0F14D0006800F00C00082803D13068DD
:1014100010F4800F0BD0E06880B301203860FFF734
:10142000BFFD8046286810F0020F12D01EE0286829
:1014300010F0020F05D0E068012802D00120BDE8BD
:10144000F88F2868216920F0F80040EAC100286080
:101450002BE0FFF7A5FDA0EB0800022802D903202E
:10146000BDE8F88F286810F0020FF2D028682169D3
:1014700020F0F80040EAC100286016E0FFE7C7F856
:101480000090FFF78DFD8046286810F0020F0CD009
:10149000FFF786FDA0EB0800022802D90320BDE873
:1014A000F88F286810F0020FF2D1207810F0080FA2
:1014B00035D09848DFF860A26169C1B101210160AF
:1014C000FFF76EFD8046DAF8000010F0020F26D11B
:1014D000FFF766FDA0EB0800022802D90320BDE853
:1014E000F88FDAF8000010F0020FF1D017E0C0F822
:1014F0000090FFF755FD8046DAF8000010F0020F6B
:101500000DD0FFF74DFDA0EB0800022802D9032003
:10151000BDE8F88FDAF8000010F0020FF1D1207862
:1015200010F0040F71D04FF000087C48006810F0F4
:10153000805F0AD17948016841F0805101600068FC
:1015400000F0805000904FF00108DFF8D4B1DBF8D4
:10155000000010F4807F1BD1DBF8000040F48070A5
:10156000CBF80000FFF71CFD8246DBF8000010F40A
:10157000807F0DD1FFF714FDA0EB0A00022802D9ED
:101580000320BDE8F88FDBF8000010F4807FF1D075
:10159000A068DFF890B1012818D005281DD0DBF82D
:1015A000000020F00100CBF80000DBF8000020F084
:1015B0000400CBF80000A06840B3FFF7F1FC8246BE
:1015C000DBF8000010F0020F14D03EE0DBF8000062
:1015D00040F00100CBF80000EDE7DBF8000040F040
:1015E0000400CBF80000DBF8000040F00100CBF86D
:1015F0000000E0E7FFF7D4FCA0EB0A0141F28830DD
:10160000814204D90320BDE8F88F26E005E0DBF82D
:10161000000010F0020FEDD017E0FFF7C1FC82468A
:10162000DBF8000010F0020F0FD0FFF7B9FCA0EBC1
:101630000A0141F28830814202D90320BDE8F88FC7
:10164000DBF8000010F0020FEFD1B8F1010F04D168
:101650003248016821F080510160A069F0B32C4943
:1016600009684FF0FF3801F00C01082966D0022804
:1016700010D0C7F86090FFF793FC0446286810F07C
:10168000007F2BD0FFF78CFC001B022851D90320D0
:10169000BDE8F88FC7F86090FFF782FC81462868A4
:1016A00010F0007F0CD0FFF77BFCA0EB09000228B4
:1016B00002D90320BDE8F88F286810F0007FF2D12E
:1016C000216AE069A26A0843616A08EB5202890153
:1016D00041EA0241084394F82C1000E055E040EA4A
:1016E0000160306001203866FFF75AFC0446286824
:1016F00010F0007F49D1FFF753FC001B022813D9DB
:101700000320BDE8F88F0000043802400000474283
:1017100008380240800E4742743802404038024088
:101720000070004070380240286810F0007FE2D05E
:101730002BE0286810F0007FA4D126E0012822D0F9
:101740003068E26900F4800191421AD1226A00F007
:101750003F01914215D147F6C071626A0140B1EB79
:10176000821F0ED1A26A00F4403108EB5202B1EBA5
:10177000024F06D194F82C1000F07060B0EB016FAE
:1017800003D00120BDE70120BBE70020B9E700003E
:10179000401EB0F1807F01D3012070474FF0E0215F
:1017A0004861044AF0201070002088610720086119
:1017B0000020704723ED00E000BFFEE710B50E48A3
:1017C0000E4908600E20486000210C488160C1600D
:1017D0004FF44031016100214161017601214176E0
:1017E00000218176C17601774177FFF7FAF808B1D9
:1017F000FEF701FE10BD0000006400408C000020D8
:1018000008B500BF002000901548006840F4800033
:10181000134908600846006800F48000009000BF8B
:1018200000BF1048104908600020486080210E4821
:1018300081608900C16049000161002141618161CD
:10184000C161016204214162032181620021C16200
:101850000163FFF705FA08B1FEF7CDFD08BD0000F2
:101860003038024028640240B400002008B500BFB0
:10187000002000901548006840F0040013490860FB
:101880000846006800F00400009000BF00BF00BFE1
:10189000002000900846006840F08000086008467C
:1018A000006800F08000009000BF00BF00BF002073
:1018B00000900846006840F0010008600846006893
:1018C00000F00100009000BF00BF08BD30380240AA
:1018D00000BFFEE770477047704710B5FFF766FB23
:1018E00010BD000000B593B0302107A8FEF7A0FCA2
:1018F000142102A8FEF79CFC00BF002001902448A0
:10190000006840F08050224908600846006800F0F6
:101910008050019000BF00BF00BF002001901D4813
:10192000006840F480401B4908600846006800F4E5
:101930008040019000BF00BF012007900004089084
:1019400002200D9041050E9104210F91A8211091C4
:10195000022111910421129107A8FFF7D7FC08B1C9
:10196000FEF749FD0F200290022003900020049012
:101970004FF4A05005904FF480500690052102A826
:10198000FFF7D0FB08B1FEF736FD13B000BD000035
:1019900040380240007000400548006840F4700084
:1019A000034908604FF000600149803908607047C2
:1019B00088ED00E000B591B0002006909DF8180079
:1019C000401103909DF818004FF6FF7101EAC02006
:1019D000001D0490002005909DF814004011019016
:1019E0009DF8140001EAC020001D029000200C9018
:1019F0000D9001200E90BDF80C000790BDF810006E
:101A00000890BDF804000990BDF808000A90002075
:101A10000B9001200F900020109000BF07A90348F1
:101A2000FEF776FD0028F9D111B000BD8C00002032
:101A300000BFFEE702E008C8121F08C1002AFAD161
:101A400070477047002001E001C1121F002AFBD13E
:101A50007047000030B585B004460D460020049064
:101A60000390029001900090A81EC0B203906EE017
:101A70009DF80C009DF81010401AC0B20290002092
:101A80003749C86320789DF8001041EA00213448A6
:101A900001646078324981F854000421304841647F
:101AA000002181649DF80800082822DA00200190B6
:101AB00013E09DF81000801C225C294854309DF8EA
:101AC0000410491C42549DF80400401CC0B201900F
:101AD0009DF81000401CC0B204909DF804009DF8D1
:101AE00008108842E5DB9DF80800401C1C49C864CA
:101AF0001DE00020019013E09DF81000801C225C86
:101B0000174854309DF80410491C42549DF80400B5
:101B1000401CC0B201909DF81000401CC0B204905F
:101B20009DF804000728E7DB08210D48C16400BFC9
:101B30000C4B0B4A5432A2F118010B48FEF76FFC14
:101B40000028F5D19DF80000401CC0B200909DF81F
:101B500010009DF80C1088428ADB05B030BD0000F3
:101B600014000020000000208C00002008B5FFF7C2
:101B700025FAFFF7B7FEFFF779FEFFF741FEFFF703
:101B80001DFEFFF717FF1E48FFF731F808B1FEF7FB
:101B900032FC02211A48FEF730FC08B1FEF72BFC9C
:101BA0004FF4FA60FFF7D2F800200A234FF47A725C
:101BB000014600900120FEF7F7FB00BF114890F8A6
:101BC00074000028FAD000200E4981F874004FF408
:101BD000FA60FFF7BBF800200A234FF47A7201463F
:101BE00000900120FEF7E0FB00BF064890F874006B
:101BF0000028FAD00020034981F8740000BFFEE7F6
:101C00008C000020140000200000000000000000F4
:101C10000102030406070809000000000102030492
:101C20000006101600061016481C000800000020D0
:101C300014000000341A00085C1C00081400002086
:101C400004090000441A0008000000000024F40009
:0C1C500001000000100000000000000077
:040000050800018965
:00000001FF
