:020000040800F2
:10000000D00400209D010008B5030008E3020008A9
:10001000B1030008210200081B06000800000000D0
:10002000000000000000000000000000D9030008EC
:100030002502000800000000B7030008C9040008FA
:10004000B7010008B7010008B7010008B7010008B0
:10005000B7010008B7010008B7010008B7010008A0
:10006000B7010008B7010008B7010008B701000890
:10007000B7010008B7010008B7010008B701000880
:10008000B7010008B7010008B7010008B701000870
:10009000B7010008B7010008B7010008B701000860
:1000A000B7010008B7010008B7010008B701000850
:1000B000B7010008B7010008B7010008B701000840
:1000C000B7010008B7010008B7010008B701000830
:1000D000B701000835050008B7010008B70100089E
:1000E000B7010008B7010008B7010008B701000810
:1000F000B7010008B7010008B7010008B701000800
:10010000B7010008B7010008B7010008B7010008EF
:10011000B7010008B7010008B7010008B7010008DF
:10012000B7010008B7010008B7010008B7010008CF
:10013000B7010008B7010008B7010008B7010008BF
:10014000B7010008B7010008B7010008B7010008AF
:10015000B7010008B7010008B7010008B70100089F
:10016000B7010008B7010008B7010008B70100088F
:10017000B7010008B7010008B7010008B70100087F
:10018000B7010008B7010008DFF80CD000F018F83C
:10019000004800473D060008D0040020064880477C
:1001A00006480047FEE7FEE7FEE7FEE7FEE7FEE75C
:1001B000FEE7FEE7FEE7FEE7CD0400088901000840
:1001C000064C074D06E0E06840F0010394E80700A4
:1001D00098471034AC42F6D3FFF7DAFFB8060008B0
:1001E000D80600081CB50121402000F0E5F8802069
:1001F000009001208DF8040000208DF806000220F8
:100200008DF807008DF805006946044800F014F8E1
:100210008021024800F063F81CBD00000018024075
:1002200000BFFEE7704701B502E00098401E009055
:1002300000980028F9D108BDF0B50A460021002336
:10024000002400BF3DE0012505FA01F3156805EA29
:1002500003049C4234D105684F000326BE40B543D9
:10026000056015794E00B54006683543056015797F
:10027000012D02D01579022D16D185684F00032675
:10028000BE40B543856055794E00B540866835431C
:100290008560456801268E40B5434560456896797E
:1002A0008E40B6B235434560C5684F000326BE4058
:1002B000B543C560D5794E00B540C6683543C560C5
:1002C000491C1029BFD3F0BD0246002013690B4022
:1002D0000BB1012000E0002070474183704701838B
:1002E000704700BFFEE700001CB50121112000F09F
:1002F00063F80120009000208DF8040002208DF8A2
:10030000070069460448FFF797FF102000906946F0
:100310000248FFF791FF1CBD0000024000100240A0
:1003200070B504460D4629462046FFF7CDFF01284B
:1003300008D100BF29462046FFF7C6FF0128F9D0A3
:10034000012070BD0020FCE71CB50121202000F039
:1003500033F84FF48060009001208DF804000020F5
:100360008DF8060001208DF8070000208DF80500AB
:1003700069460E48FFF760FF4FF400700090694631
:100380000A48FFF759FF4FF400710848FFF7A7FF2D
:100390004FF48060009069460448FFF74DFF4FF42A
:1003A00080610248FFF79BFF1CBD00000014024063
:1003B00000BFFEE77047704729B1064A1268024342
:1003C000044B1A6004E0034A12688243014B1A602E
:1003D0007047000030380240704700000CB5002024
:1003E000019000903448006840F480303249086041
:1003F00000BF3148006800F4003000900198401CB4
:100400000190009818B90198B0F5A04FF1D12A4891
:10041000006800F4003010B10120009001E00020DD
:1004200000900098012846D123484030006840F0F1
:1004300080502149403108602048006840F4404025
:100440001E4908601C48083000681B4908310860D4
:100450000846006840F4004008600846006840F420
:10046000A05008601648091F0860081F006840F087
:100470008070091F086000BF0F48006800F000701E
:100480000028F9D040F205700E4908600A4808308B
:10049000006820F003000849083108600846006839
:1004A00040F00200086000BF03480830006800F018
:1004B0000C000828F8D10CBD003802400070004044
:1004C00008544007003C02407047000010B5154832
:1004D000006840F47000134908601348006840F059
:1004E00001001149086000200F49083108600E48DA
:1004F00000680E4908400C4908600D48091D086055
:10050000081F006820F48020091F086000200649A9
:100510000C310860FFF762FF4FF00060014980393D
:10052000086010BD88ED00E000380240FFFFF6FED5
:100530001030002410B540F225511D4800F03EF85F
:1005400010B31B4800F064F8C4B21A48008800F4E5
:100550000040C8B91748008800F4804060B10A2CF8
:1005600003D000201349088020E01248008840F49E
:1005700000401049088019E00D2C06D10D48008874
:1005800040F480400B49088010E00A480088C0F31E
:100590000D0009490C5407480088401C0549088093
:1005A00008460088C72801DD0020088010BD000033
:1005B00000100140040000200800002070B5024631
:1005C000002400230025002040F66A16B14200D125
:1005D00000BFC1F3421501F01F03012606FA03F321
:1005E000012D02D19689334006E0022D02D1168AF0
:1005F000334001E0968A33400C12012606FA04F4D7
:100600001688344013B10CB1012000E0002070BD09
:1006100001468888C0F30800704700BFFEE702E08B
:1006200008C8121F08C1002AFAD17047704700207D
:1006300001E001C1121F002AFBD17047FFF784FEC1
:10064000FFF7D0FDFFF750FE2DE001211648FFF720
:1006500067FE012810D181021448FFF73EFE4FF4D7
:1006600000711248FFF73BFE80211148FFF735FE6D
:100670006FF07F40FFF7D7FD10210E48FFF750FEC7
:10068000012810D181020948FFF729FE4FF40071BB
:100690000648FFF722FE80210548FFF720FE6FF095
:1006A0007F40FFF7C0FDD0E7000002400014024089
:1006B0000018024000100240D80600080000002088
:1006C000080000001E060008E006000808000020E0
:1006D000C80400002E060008000000000000000012
:040000050800018965
:00000001FF
