:020000040800F2
:1000000018090020A1010008151A0008F9180008B5
:10001000111A0008AD020008711B00080000000062
:10002000000000000000000000000000191A000895
:10003000D703000800000000171A00081B1A000868
:10004000BB010008BB010008BB010008BB010008A0
:10005000BB010008BB010008BB010008BB01000890
:10006000BB010008BB010008BB010008BB01000880
:10007000BB010008BB010008BB010008BB01000870
:10008000BB010008BB010008BB010008BB01000860
:10009000B1020008BB010008BB010008BB01000859
:1000A000BB010008BB010008BB010008BB01000840
:1000B000BB010008BB010008BB010008BB01000830
:1000C000BB010008BB010008BB010008BB01000820
:1000D000BB010008BB010008BB010008BB01000810
:1000E000BB010008BB010008BB010008BB01000800
:1000F000BB010008BB010008BB010008BB010008F0
:10010000BB010008BB010008BB010008BB010008DF
:10011000BB010008BB010008BB010008BB010008CF
:10012000BB010008BB010008BB010008BB010008BF
:10013000BB010008BB010008BB010008BB010008AF
:10014000BB010008BB010008BB010008BB0100089F
:10015000BB010008BB010008BB010008BB0100088F
:10016000BB010008BB010008BB010008BB0100087F
:10017000BB010008BB010008BB0100080000000033
:10018000BB010008BB010008DFF810D000F07CF8CC
:1001900000480047E51C0008AFF300801809002064
:1001A0000648804706480047FEE7FEE7FEE7FEE711
:1001B000FEE7FEE7FEE7FEE7FEE7FEE7D91A0008E6
:1001C000890100082DE9F05F0546002092469B4614
:1001D00088460646814640241BE02846414647465D
:1001E000224600F041F853465A46C01A914110D3B6
:1001F00011461846224600F028F82D1A67EB010830
:100200004F4622460120002100F01FF817EB00099D
:100210004E41201EA4F10104DFDC484631462A4647
:100220004346BDE8F09FD2B201E000F8012B491E21
:10023000FBD270470022F6E710B513460A46044683
:100240001946FFF7F0FF204610BD202A04DB203AB4
:1002500000FA02F1002070479140C2F1200320FA19
:1002600003F3194390407047202A04DB203A21FA17
:1002700002F00021704721FA02F3D040C2F12002BF
:100280009140084319467047064C074D06E0E06868
:1002900040F0010394E8070098471034AC42F6D3CD
:1002A000FFF776FF7C1D00089C1D000800BFFEE7DD
:1002B00010B500240E4BA3F11C0200210D4800F0E4
:1002C00016FA80B90A481C380069C4B204E000215B
:1002D00007480155601CC4B2082CF8DB0120044912
:1002E0001C3981F87400034800F0BEFA10BD00000C
:1002F000300000208C0000200146087810381823B8
:10030000B0FBF3F20848805CC865032A05D9086889
:100310006FF30900001D886503E008686FF30900AA
:100320008865886D704700005C1D0008014600204C
:100330008A6A8B69CBB932B1012A0DD0022A03D067
:10034000032A10D10EE000BFCB6A03F08073B3F133
:10035000807F00D1012007E0CB6AB3F1C07F00D1DC
:10036000012001E000E000BF34E08B69B3F5005FDD
:100370001AD132B1012A07D0022A03D0032A11D19F
:100380000AE000BF01200EE0CB6A03F08073B3F1F6
:10039000807F00D1012006E0CB6AB3F1C07F00D19D
:1003A000012000E000BF15E032B1012A05D0022A89
:1003B00004D0032A0CD103E000BF00BF012008E0F5
:1003C000CB6A03F08073B3F1807F00D1012000E09D
:1003D00000BF00BF704770472DE9FF4706460F4634
:1003E00015469846DDE90D9A0C9C0020009001907E
:1003F000029003908DF80060FD208DF801008DF8CB
:10040000027028128DF80300E8B28DF804008DF810
:100410000580200E8DF80600200C8DF80700200ABC
:100420008DF80800E0B28DF809008DF80A908DF87B
:100430000BA06B208DF80C000D21684601F0C6FB67
:10044000BDE8FF8700BFFEE710B5024692F82030F6
:10045000012B01D0022B06D11068406908431468B3
:100460006061002010BD506A40F48020506201207D
:10047000F8E7F0B504460D461E4694F82070206853
:100480008368A86800B900E000BF012F01D0022FE7
:100490007CD103F0806030B903F0006018B903F03C
:1004A0008050002873D0C3F30161022905D9606A26
:1004B00040F4000060620120F0BD012088403060FF
:1004C000A86860B9B5F800C0E86840EA4C5C2068EC
:1004D00000F5C07000EB0110C0F800C00FE0D5E9D6
:1004E00001C040EACC00D5F80CC040EA0C00D4F8BA
:1004F00000C00CF5C07C0CEB011CCCF80000D5F85A
:1005000010C0206800F5C07000EB0110C0F804C0F6
:10051000287D01280ED1206800F5C07000EB011085
:10052000406840F4807C206800F5C07000EB01104A
:10053000C0F804C0D079000692F806C040EA0C402A
:1005400092F805C040EA0C2C10794CEA000C2068A7
:1005500000F5C07000EB0110C0F80CC0D0780006A8
:1005600092F802C040EA0C4092F801C040EA0C2028
:1005700092F800C040EA0C00D4F800C00CF5C07C32
:100580000CEB011CCCF80800206801E016E00FE03D
:1005900000F5C07000EB0110006840F0010C20680D
:1005A00000F5C07000EB0110C0F800C0002083E728
:1005B000606A40F40010606201207DE7606A40F4E8
:1005C00080206062012077E7F0B504460A46216882
:1005D00094F82050012D01D0022D7ED1424901F521
:1005E0000071086840F001000860086820F47C5041
:1005F00008600868566A40EA06200860107D00F02E
:100600001F06012000FA06F3C8699843C861A1F5E6
:100610000071D069C8B9D1F80C029843C1F80C0236
:10062000908880B2968940EA064601F510705769B5
:1006300040F83760108880B2168940EA064601F516
:100640001070576900EBC7004660D069012819D1C6
:10065000D1F80C021843C1F80C02908880B21688B9
:1006600040EA064601F51070576940F837609089F6
:1006700080B2168940EA064601F51070576900EB12
:10068000C7004660906928B9D1F804029843C1F8C0
:10069000040204E0D1F804021843C1F8040210690E
:1006A00028B9D1F814029843C1F8140204E0D1F833
:1006B00014021843C1F81402106A012804D1D1F8B9
:1006C0001C021843C1F81C02D1F8000220F00100FE
:1006D000C1F800020020F0BDFFE7606A40F480200E
:1006E00060620120F7E7000000640040704770B5C9
:1006F000044694F82050012D01D0022D7DD151B92E
:100700002068C06800F0030080B9606A40F40010FF
:100710006062012070BD2068006900F0030028B904
:10072000606A40F4001060620120F3E7206800F581
:10073000D87000EB0110006800F004009060906831
:1007400040B9206800F5D87000EB01100068400D3A
:10075000106007E0206800F5D87000EB0110006819
:10076000C0085060206800F5D87000EB01100068E8
:1007700000F00200D060206800F5D87000EB011096
:10078000406800F00F001061206800F5D87000EBA1
:100790000110406800F47F40000A9061206800F575
:1007A000D87000EB01104068000C5061206800F523
:1007B000D87000EB011080681870206800F5D870C0
:1007C00000EB0110806800F47F40000A5870206838
:1007D00000F5D87000EB0110806800F47F00000C79
:1007E0009870206800F5D87000EB01108068000E4A
:1007F000D870206800F5D87000E02FE000EB011001
:10080000C0681871206800F5D87000EB0110C0684E
:1008100000F47F40000A5871206800F5D87000EBA2
:100820000110C06800F47F00000C9871206800F58A
:10083000D87000EB0110C068000ED87131B9206883
:10084000C06840F020002668F06005E0206800697C
:1008500040F020002668306100205BE7606A40F4C9
:1008600080206062012055E72DE9F05F04460025F5
:10087000206846692068D0F804902068876820685E
:10088000D0F80CA02068D0F810B02068D0F81880FC
:1008900006F00100002855D007F00100C0B101208A
:1008A0002168886007F0020018B1204600F03FFA86
:1008B0000EE007F0040010B145F4006508E007F011
:1008C000080010B145F4805502E0204600F02EFAF1
:1008D00007F48070C8B14FF480702168886007F415
:1008E000007018B1204600F024FA0EE007F4806092
:1008F00010B145F4005508E007F4006010B145F46C
:10090000804502E0204600F013FA07F48030C8B1B9
:100910004FF480302168886007F4003018B1204619
:1009200000F009FA0EE007F4802010B145F400450C
:1009300008E007F4002010B145F4803502E02046BD
:1009400000F0F8F906F0080038B10AF0100020B104
:1009500045F4007510202168C86006F0040040B11D
:100960000AF0080028B108202168C860204600F07D
:10097000A9F906F0020038B12068C06800F0030051
:1009800010B1204600F09FF906F0400038B10BF09E
:10099000100020B145F4806510202168086106F040
:1009A000200040B10BF0080028B108202168086140
:1009B000204600F089F906F0100038B1206800697F
:1009C00000F0030010B1204600F07FF906F400307B
:1009D00040B109F0100028B110202168486020467D
:1009E00000F074F906F4803040B109F0080028B135
:1009F000082021684860204600F09EF906F4004077
:100A000088B309F0040078B306F4807020B108F0D0
:100A1000010008B145F0010506F4007020B108F0AE
:100A2000020008B145F0020506F4806020B108F02C
:100A3000040008B145F0040506F40060A0B108F018
:100A4000700088B108F07000402817D006DC10282C
:100A50000BD020280CD0302819D10CE0502810D011
:100A6000602814D110E01DE019E045F008050FE002
:100A700045F010050CE045F0200509E045F0400583
:100A800006E045F0800503E045F4807500E000BF16
:100A900000BF2068806920F0700021688861042010
:100AA000216848602DB1606A284360622046FFF7E4
:100AB0001DFEBDE8F09F70B504460CB9012070BD65
:100AC00094F8200010B9204600F0B0F820680068C3
:100AD00020F002002168086000F0BAFA05460DE037
:100AE00000F0B6FA401B0A2808D9606A40F40030CA
:100AF0006062052084F820000120E0E7206840685B
:100B000000F002000028EBD12068006840F00100EE
:100B10002168086000F09CFA05460DE000F098FAA4
:100B2000401B0A2808D9606A40F400306062052042
:100B300084F820000120C2E72068406800F001002E
:100B40000028EBD0207E012806D12068006840F004
:100B500080002168086005E02068006820F08000BF
:100B600021680860607E012806D12068006840F096
:100B700040002168086005E02068006820F040001F
:100B800021680860A07E012806D12068006840F036
:100B900020002168086005E02068006820F020003F
:100BA00021680860E07E012806D12068006820F0F6
:100BB00010002168086005E02068006840F010001F
:100BC00021680860207F012806D12068006840F075
:100BD00008002168086005E02068006820F008002F
:100BE00021680860607F012806D12068006840F015
:100BF00004002168086005E02068006820F0040017
:100C000021680860D4E90201084321690843616949
:100C100008436168491E08432168C861002060627A
:100C2000012084F82000002049E7000010B586B0BC
:100C30000446142101A8FFF7FDFA1F4920688842E5
:100C400038D100BF002000901C48006840F00070C0
:100C50001A4908600846006800F00070009000BF64
:100C600000BF00BF0020009014481038006840F01A
:100C700002001249103908600846006800F00200BE
:100C8000009000BF00BF4FF440700190022002901E
:100C900000200390032004900920059001A9084832
:100CA00000F0D6F800221146142000F05BFA142060
:100CB00000F048FA06B010BD006400404038024021
:100CC000000402407047704770477047704770B526
:100CD000044694F82000012822D1022084F8200044
:100CE0002068006820F001002168086000F0B0F979
:100CF00005460DE000F0ACF9401B0A2808D9606AEF
:100D000040F400306062052084F82000012070BDAE
:100D10002068406800F001000028EBD16062F6E72F
:100D2000606A40F4002060620120F0E7704770477D
:100D30007047704770477047704700002DE9F041D9
:100D40000446002500F084F9074614B90120BDE8E7
:100D5000F081606A00B100BF00BF002084F8340059
:100D600000BF022084F835002068006820F00100F0
:100D7000216808600AE000F06BF9C01B052805D95E
:100D800020206065032084F83500E0E720680068D3
:100D900000F001000028EED12068056821480540D8
:100DA000D4E901010843E168084321690843616906
:100DB0000843A1690843E1690843216A08430543E0
:100DC000606A042803D1D4E90B0108430543206875
:100DD00005602068456925F00705606A0543606A7B
:100DE00004280DD1A06A0543E06A48B12046FFF708
:100DF0009DFA28B140206065012084F83500A6E7FF
:100E0000206845612046FFF777FA064694F85C10A3
:100E10003F208840B06000206065012084F83500E4
:100E2000002094E73F8010F070B5044600F010F900
:100E300006462546681C10B104480078054400BFEA
:100E400000F006F9801BA842FAD370BD0C00002008
:100E5000F8B502460B460025002400200021DCE006
:100E6000012606FA01F51E6806EA0504AC4273D1B4
:100E70005E68012E08D05E68022E05D05E68112ED5
:100E800002D05E68122E13D190684F000326BE4038
:100E9000B0434F00DE68BE4030439060506801268A
:100EA0008E40B0431E79C6F300168E40304350602A
:100EB000D0684F000326BE40B0434F009E68BE403E
:100EC0003043D0605E68022E02D05E68122E13D1CD
:100ED000CF0802F1200656F827004E07F70E0F261E
:100EE000BE40B0434F07FF0E1E69BE403043CF08DF
:100EF00002F1200646F8270010684F000326BE4086
:100F0000B0431E7906F003064F00BE403043106028
:100F10005E6806F08056B6F1805F7DD100BF002686
:100F20000096404E366846F480463E4F3E603E4650
:100F3000366806F48046009600BF00BF3A4E8F0820
:100F400056F827008E07370F0F26BE40B043374EA6
:100F5000B24202D1002624E05EE0354EB24201D119
:100F600001261EE0334EB24201D1022619E0324E74
:100F7000B24201D1032614E0304EB24201D1042620
:100F80000FE02F4EB24201D105260AE02D4EB242AB
:100F900001D1062605E02C4EB24201D1072600E021
:100FA00008268F073F0FBE4030431F4E8F0846F87C
:100FB0002700264E3068A0435E6806F48036B6F5FA
:100FC000803F00D12043214E3060361D3068A04361
:100FD0005E6806F40036B6F5003F00D120431B4E94
:100FE000361D3060361D3068A0435E6806F48016FA
:100FF000B6F5801F00D12043144E08363060361DF0
:101000003068A0435E6806F40016B6F5001F00D1F4
:1010100020430E4E0C363060491C1029FFF420AFDF
:10102000F8BD00004438024008380140000002408A
:101030000004024000080240000C02400010024080
:101040000014024000180240001C0240003C014015
:101050000148006870470000040000200348006851
:1010600003490978084401490860704704000020DA
:101070000C00002010B50D48006840F400700B49CA
:1010800008600846006840F4806008600846006810
:1010900040F480700860032000F0A2F8002000F007
:1010A00007F800F02BF8002010BD0000003C0240C3
:1010B00070B504460E4800784FF47A71B1FBF0F039
:1010C0000C490968B1FBF0F5284600F0FBFB08B1BC
:1010D000012070BD102C07D200222146501E00F0C6
:1010E00041F80548046001E00120F2E70020F0E744
:1010F0000C000020100000200800002008B500BFF0
:10110000002000900E48006840F480400C490860C0
:101110000846006800F48040009000BF00BF00BF98
:1011200000200090081F006840F08050091F0860F0
:101130000846006800F08050009000BF00BF08BD66
:101140004438024001460846002809DB00F01F032E
:1011500001229A4043099B0003F1E023C3F80021D8
:1011600000BF70472DE9F05F80460D461646002708
:1011700000F000FD074639462A46334601F00700D5
:10118000C0F1070ABAF1040F02D94FF0040A01E0D6
:10119000C0F1070AD14600F1040ABAF1070F02D2E2
:1011A0004FF0000A01E0A0F1030AD4464FF0010A13
:1011B0000AFA09FAAAF1010A0AEA020A0AFA0CFA78
:1011C0004FF0010B0BFA0CFBABF1010B0BEA030B1D
:1011D0004AEA0B042146404600F0D4FCBDE8F09FEB
:1011E00000BF00F00702064B19684FF6FF031940D5
:1011F000044B0B4343EA0221014B196000BF7047C7
:101200000CED00E00000FA0570B504460D460CB97F
:10121000012070BD5848006800F00F00A84209D2B4
:1012200055490D700846006800F00F00A84201D033
:101230000120EEE7207800F0020002281DD120787E
:1012400000F00400042805D14C48006840F4E05048
:101250004A490860207800F00800082805D147486E
:10126000006840F46040454908604448006820F048
:10127000F000A168084341490860207800F00100AF
:10128000A8B36068012807D13C4808380068C0F35B
:101290004040B8B90120BCE76068022802D060680D
:1012A000032807D1354808380068C0F3406048B9C2
:1012B0000120AEE7314808380068C0F3400008B9A3
:1012C0000120A6E72D48006820F00300616808436C
:1012D0002A490860FFF7BCFE064609E0FFF7B8FEA2
:1012E000801B41F28831884202D9032091E707E050
:1012F0002248006800F00C006168B0EB810FEDD16E
:101300001D48006800F00F00A84209D91A490D7065
:101310000846006800F00F00A84201D0012078E7DD
:10132000207800F00400042807D11448006820F455
:10133000E050E168084311490860207800F0080097
:10134000082808D10D48006820F46040216940EA6F
:10135000C1000A49086000F019F808490968C1F39A
:101360000311074A515CC8400649086006480068F6
:10137000FFF79EFE00204CE7003C02400838024088
:10138000641D000810000020080000202DE9F0472F
:10139000002400250026A1462548006800F00C0026
:1013A00020B1042805D008283AD105E0DFF8849060
:1013B00039E0DFF8849036E01D48001F006800F037
:1013C0003F041B48001F006800F4800078B11A48F1
:1013D0001749091F0968C1F38811A0FB0170014674
:1013E000224600233846FEF7EDFE05460EE0114882
:1013F0000F49091F0968C1F38811A0FB017001465C
:10140000224600233846FEF7DDFE05460848001F49
:101410000068C0F30140401C4600B5FBF6F902E04D
:10142000DFF8109000BF00BF4846BDE8F08700001D
:10143000083802400024F40000127A00F8B504468F
:101440000CB90120F8BD207800F00100002874D00C
:10145000F948006800F00C0004280DD0F648006838
:1014600000F00C00082813D1F348001F006800F4B6
:101470008000B0F5800F0BD1EF4808380068C0F34A
:101480004040002859D06068002856D10120D9E793
:1014900000BF6068B0F5803F08D1E74808380068B1
:1014A00040F48030E449083908601EE06068B0F517
:1014B000A02F0DD1E0480838006840F48020DE49B4
:1014C000083908600846006840F4803008600CE085
:1014D000D9480838006820F48030D74908390860B6
:1014E0000846006820F48020086000BF606890B162
:1014F000FFF7AEFD054606E0FFF7AAFD401B642896
:1015000001D903209EE7CC4808380068C0F340406A
:101510000028F1D011E0FFF79BFD054606E0FFF73C
:1015200097FD401B642801D903208BE7C248083887
:101530000068C0F340400028F1D1207800F002009C
:1015400002285FD1BC48006800F00C0058B1BA48CE
:10155000006800F00C0008281CD1B748001F006884
:1015600000F48000B0B9B44808380068C0F3400007
:1015700020B1E068012801D0012063E7AE480838B7
:10158000006820F0F800216940EAC100AA49083942
:10159000086037E0E06800B30120A8490860FFF761
:1015A00057FD054606E0FFF753FD401B022801D911
:1015B000032047E7A04808380068C0F3400000282F
:1015C000F1D09D480838006820F0F800216940EA11
:1015D000C10099490839086014E000209749086063
:1015E000FFF736FD054606E0FFF732FD401B0228F7
:1015F00001D9032026E7904808380068C0F340006E
:101600000028F1D1207800F0080008282CD160696A
:10161000A8B101208A490860FFF71AFD054606E0D7
:10162000FFF716FD401B022801D903200AE7824874
:101630006C300068C0F340000028F1D014E00020B6
:101640007F490860FFF704FD054606E0FFF700FD4F
:10165000401B022801D90320F4E677486C3000686B
:10166000C0F340000028F1D1207800F004000428E5
:1016700070D1002770483830006800F0805090B971
:1016800000BF002000906C483830006840F0805067
:101690006949383108600846006800F080500090C1
:1016A00000BF00BF01276748006800F48070B0B930
:1016B0006448006840F4807062490860FFF7C8FC25
:1016C000054606E0FFF7C4FC401B022801D90320B1
:1016D000B8E65C48006800F480700028F2D000BFD3
:1016E000A068012808D154486830006840F0010023
:1016F0005149683108601DE0A06805280DD14E48A9
:101700006830006840F004004B49683108600846C2
:10171000006840F0010008600CE04748683000684D
:1017200020F001004449683108600846006820F054
:101730000400086000BFA068A8B1FFF789FC054657
:1017400009E0FFF785FC401B41F28831884202D94D
:10175000032077E626E0384868300068C0F3400090
:101760000028EED013E0FFF773FC054608E0FFF712
:101770006FFC401B41F28831884201D9032061E6A9
:101780002D4868300068C0F340000028EFD1012FD9
:1017900007D129483830006820F080502649383178
:1017A000086000BFA069002845D02348006800F009
:1017B0000C0008285DD0A069022845D100201F49EF
:1017C0000866FFF745FC054606E0FFF741FC401BB5
:1017D000022801D9032035E6174808380068C0F30D
:1017E00040600028F1D1D4E907010843616A40EA6A
:1017F00081110122A06AC2EB500041EA00412C2075
:10180000005D41EA00600C49091F086001200B4996
:101810000866FFF71DFC054606E0FFF719FC401BB4
:10182000022801D903200DE6034808380068C0F3F8
:1018300040600028F1D03FE00838024000004742F5
:10184000800E47420070004000201C490866FFF7E8
:10185000FFFB054606E0FFF7FBFB401B022801D912
:101860000320EFE516480068C0F340600028F2D17D
:1018700022E0A069012800D1E4E51148083006689B
:1018800006F48001E069814214D106F03F01206A2C
:1018900081420FD147F6C0703040616A884209D159
:1018A00006F44031A06A814204D106F07061E06A1A
:1018B000814201D00120C5E50020C3E50000474278
:1018C0000038024070B504462546681EB0F1807F9E
:1018D00001D301200FE0681E4FF0E02148610F2185
:1018E0004FF0FF3000F04EF900204FF0E02188610A
:1018F00007200861002070BD00BFFEE710B50E484C
:101900000E4908600E20486000210C488160C160CB
:101910004FF440310161002141610176012141769E
:1019200000218176C17601774177FFF7C4F808B1CD
:10193000FEF788FD10BD0000006400408C00002010
:1019400008B500BF002000901548006840F48000F2
:10195000134908600846006800F48000009000BF4A
:1019600000BF1048104908600020486080210E48E0
:1019700081608900C160490001610021416181618C
:10198000C161016204214162032181620021C162BF
:101990000163FFF7D3F908B1FEF754FD08BD00005D
:1019A0003038024028640240B400002008B500BF6F
:1019B000002000901548006840F0040013490860BA
:1019C0000846006800F00400009000BF00BF00BFA0
:1019D000002000900846006840F08000086008463B
:1019E000006800F08000009000BF00BF00BF002032
:1019F00000900846006840F0020008600846006851
:101A000000F00200009000BF00BF08BD3038024067
:101A100000BFFEE770477047704710B5FFF71EFB29
:101A200010BD000000B593B0302107A8FEF702FCFE
:101A3000142102A8FEF7FEFB00BF002001902448FD
:101A4000006840F08050224908600846006800F0B5
:101A50008050019000BF00BF00BF002001901D48D2
:101A6000006840F480401B4908600846006800F4A4
:101A70008040019000BF00BF012007900004089043
:101A800002200D9041050E9104210F91A821109183
:101A9000022111910421129107A8FFF7CFFC08B190
:101AA000FEF7D0FC0F20029002200390002004904B
:101AB0004FF4A05005904FF480500690052102A8E5
:101AC000FFF7A2FB08B1FEF7BDFC13B000BD00009C
:101AD00040380240007000400548006840F4700043
:101AE000034908604FF00060014980390860704781
:101AF00088ED00E000B591B0002006909DF8180038
:101B0000401103909DF818004FF6FF7101EAC020C4
:101B1000001D0490002005909DF8140040110190D4
:101B20009DF8140001EAC020001D029000200C90D6
:101B30000D9001200E90BDF80C000790BDF810002C
:101B40000890BDF804000990BDF808000A90002034
:101B50000B9001200F900020109000BF07A90348B0
:101B6000FEF732FD0028F9D111B000BD8C00002035
:101B700000BFFEE702480068C0F302207047000083
:101B80000CED00E010B5002804DB0A07130E054A2F
:101B9000135406E00A07140E034A00F00F031B1F3C
:101BA000D45410BD00E400E018ED00E002E008C8E5
:101BB000121F08C1002AFAD170477047002001E0C7
:101BC00001C1121F002AFBD17047000030B585B05B
:101BD00004460D460020049003900290019000906E
:101BE000A81EC0B203906EE09DF80C009DF8101086
:101BF000401AC0B2029000203749C86320789DF88F
:101C0000001041EA0021344801646078324981F8CB
:101C10005400042130484164002181649DF808008B
:101C2000082822DA0020019013E09DF81000801CA3
:101C3000225C294854309DF80410491C42549DF8F8
:101C40000400401CC0B201909DF81000401CC0B2BE
:101C500004909DF804009DF808108842E5DB9DF88B
:101C60000800401C1C49C8641DE00020019013E0DE
:101C70009DF81000801C225C174854309DF8041019
:101C8000491C42549DF80400401CC0B201909DF8CC
:101C90001000401CC0B204909DF804000728E7DB48
:101CA00008210D48C16400BF0C4B0B4A5432A2F10D
:101CB00018010B48FEF7DDFB0028F5D19DF8000068
:101CC000401CC0B200909DF810009DF80C10884296
:101CD0008ADB05B030BD00001400002000000020A9
:101CE0008C0000200EB5FFF7C5F9FFF79BFEFFF74C
:101CF0005DFEFFF725FEFFF701FEFFF7FBFE15482F
:101D0000FEF7E5FF08B1FEF79DFB02211148FEF743
:101D10009BFB08B1FEF796FB4FF4FA60FFF784F8DF
:101D200000204FF44862CDE9002003464FF47A7258
:101D3000014602900120FEF74FFB00BF064890F8D5
:101D400074000028FAD00020034981F8740000BF15
:101D5000FEE700008C000020140000200006101692
:101D6000000610160000000000000000010203043D
:101D70000607080900000000010203049C1D00087A
:101D80000000002014000000AC1B0008B01D00087B
:101D90001400002004090000BC1B00080000000023
:101DA0000000000010000000010000000024F4000A
:040000050800018965
:00000001FF
