:020000040800F2
:10000000D00400209D010008B50400084504000844
:10001000B1040008210200083B08000800000000AD
:10002000000000000000000000000000B90500080A
:10003000250200080000000075050008E906000818
:10004000B7010008B7010008B7010008B7010008B0
:10005000B7010008B701000829020008B70100082D
:10006000B7010008B7010008B7010008B701000890
:10007000B7010008B7010008B7010008B701000880
:10008000B7010008B7010008B7010008B701000870
:10009000B7010008B7010008B7010008B701000860
:1000A000B7010008B7010008B7010008B701000850
:1000B000B7010008B7010008B7010008B701000840
:1000C000B7010008B7010008B7010008B701000830
:1000D000B701000855070008B7010008B70100087C
:1000E00049020008B7010008B7010008B70100087D
:1000F000B7010008B7010008B7010008B701000800
:10010000B7010008B7010008B7010008B7010008EF
:10011000B7010008B7010008B7010008B7010008DF
:10012000B7010008B7010008B7010008B7010008CF
:10013000B7010008B7010008B7010008B7010008BF
:10014000B7010008B7010008B7010008B7010008AF
:10015000B7010008B7010008B7010008B70100089F
:10016000B7010008B7010008B7010008B70100088F
:10017000B7010008B7010008B7010008B70100087F
:10018000B7010008B7010008DFF80CD000F018F83C
:10019000004800475D080008D0040020064880475A
:1001A00006480047FEE7FEE7FEE7FEE7FEE7FEE75C
:1001B000FEE7FEE7FEE7FEE7ED060008890100081E
:1001C000064C074D06E0E06840F0010394E80700A4
:1001D00098471034AC42F6D3FFF7DAFF6C080008FA
:1001E0008C0800081CB50121402000F0C5F98020D2
:1001F000009001208DF8040000208DF806000220F8
:100200008DF807008DF805006946044800F0CEF827
:100210008021024800F014F91CBD000000180240C3
:1002200000BFFEE77047000010B5012000F022F883
:1002300038B14FF48061034800F000F9012000F06C
:1002400013F810BD0014024010B5102000F012F891
:1002500038B14FF48061034800F0F0F8102000F04E
:1002600003F810BD00140240014908607047000007
:10027000143C014001460020034A12680A400AB1BA
:10028000012000E000207047143C01400021234978
:100290008279002A3AD00A46126803689A430B46CC
:1002A0001A600A1D126803689A430B1D1A600279CE
:1002B00011440A6803681A430A60184A083212682F
:1002C00003689A43154B08331A601A1D12680368B5
:1002D0009A43124B0C331A604279102A0ED11A1F1E
:1002E000126803681A430D4B08331A601A1D12680E
:1002F00003681A43094B0C331A600DE00749427931
:1003000011440A6803681A430A6005E0027911443F
:100310000A6803689A430A6070470000003C014085
:100320001FB50121112000F027F90121880300F0F9
:1003300033F900F0C0F80120029000208DF80C0085
:100340008DF80F0002A9174800F030F80021084688
:1003500000F034F90120009000208DF804000820FE
:100360008DF8050001208DF806006846FFF78EFF26
:100370001020029002A90C4800F018F80421084649
:1003800000F01CF91020009000208DF804000C20D3
:100390008DF8050001208DF806006846FFF776FF0E
:1003A0001FBD00000000024000100240F0B50A46E8
:1003B00000210023002400BF3DE0012505FA01F3E0
:1003C000156805EA03049C4234D105684F000326F2
:1003D000BE40B543056015794E00B540066835430B
:1003E00005601579012D02D01579022D16D1856889
:1003F0004F000326BE40B543856055794E00B54099
:10040000866835438560456801268E40B543456062
:10041000456896798E40B6B235434560C5684F0051
:100420000326BE40B543C560D5794E00B540C668C9
:100430003543C560491C1029BFD3F0BD41837047C7
:100440000183704700BFFEE71CB50121202000F0AA
:1004500093F84FF48060009001208DF80400002094
:100460008DF8060001208DF8070000208DF80500AA
:1004700069460E48FFF79AFF4FF4007000906946F6
:100480000A48FFF793FF4FF400710848FFF7D8FFC1
:100490004FF48060009069460448FFF787FF4FF4EF
:1004A00080610248FFF7CCFF1CBD00000014024031
:1004B00000BFFEE7704708B54FF4C06000F050F889
:1004C00006208DF8000001208DF801008DF8020053
:1004D0008DF80300684600F007F828208DF800002A
:1004E000684600F001F808BD70B5002100230F2216
:1004F000C4781CB3174C246804F4E064C4F5E064C9
:10050000C4F30721C1F10404E3B20A4144789C40DA
:10051000E1B28478144021430C07210E0E4C05787B
:100520006155047804F01F050124AC4005786D1175
:10053000AD0005F1E025C5F8004109E0047804F0BC
:100540001F050124AC40054D0678761145F826407C
:1005500070BD00000CED00E000E400E080E100E090
:1005600002490143024A1160704700000000FA0589
:100570000CED00E07047000029B1064A1268024302
:10058000044B1A6004E0034A12688243014B1A606C
:10059000704700003038024029B1064A1268024311
:1005A000044B1A6004E0034A12688243014B1A604C
:1005B00070470000443802407047000030B5002208
:1005C0008B071C0F0F2303FA04F20B4B8C1053F80C
:1005D00024309343084C8D1044F8253023468C106A
:1005E00053F824308C07240F00FA04F42343024C00
:1005F0008D1044F8253030BD083801400CB500207E
:10060000019000903448006840F48030324908601E
:1006100000BF3148006800F4003000900198401C91
:100620000190009818B90198B0F5A04FF1D12A486F
:10063000006800F4003010B10120009001E00020BB
:1006400000900098012846D123484030006840F0CF
:1006500080502149403108602048006840F4404003
:100660001E4908601C48083000681B4908310860B2
:100670000846006840F4004008600846006840F4FE
:10068000A05008601648091F0860081F006840F065
:100690008070091F086000BF0F48006800F00070FC
:1006A0000028F9D040F205700E4908600A48083069
:1006B000006820F003000849083108600846006817
:1006C00040F00200086000BF03480830006800F0F6
:1006D0000C000828F8D10CBD003802400070004022
:1006E00008544007003C02407047000010B5154810
:1006F000006840F47000134908601348006840F037
:1007000001001149086000200F49083108600E48B7
:1007100000680E4908400C4908600D48091D086032
:10072000081F006820F48020091F08600020064987
:100730000C310860FFF762FF4FF00060014980391B
:10074000086010BD88ED00E000380240FFFFF6FEB3
:100750001030002410B540F225511D4800F03EF83D
:1007600010B31B4800F064F8C4B21A48008800F4C3
:100770000040C8B91748008800F4804060B10A2CD6
:1007800003D000201349088020E01248008840F47C
:1007900000401049088019E00D2C06D10D48008852
:1007A00040F480400B49088010E00A480088C0F3FC
:1007B0000D0009490C5407480088401C0549088071
:1007C00008460088C72801DD0020088010BD000011
:1007D00000100140040000200800002070B502460F
:1007E000002400230025002040F66A16B14200D103
:1007F00000BFC1F3421501F01F03012606FA03F3FF
:10080000012D02D19689334006E0022D02D1168ACD
:10081000334001E0968A33400C12012606FA04F4B4
:100820001688344013B10CB1012000E0002070BDE7
:1008300001468888C0F30800704700BFFEE702E069
:1008400008C8121F08C1002AFAD17047704700205B
:1008500001E001C1121F002AFBD17047FFF7F4FD30
:10086000FFF7C0FCFFF75CFD00BFFEE78C08000847
:1008700000000020080000003E080008940800085E
:1008800008000020C80400004E0800080000000016
:040890000000000064
:040000050800018965
:00000001FF
